:020000040800F2
:100000009810002065020008BF2B00088B2700080D
:10001000BD2B00080D080008AD35000800000000E9
:10002000000000000000000000000000CD010008FA
:10003000DF0C000800000000110200081B2F000860
:100040007F0200087F0200087F0200087F0200088C
:100050007F0200087F0200087F0200087F0200087C
:100060007F0200087F0200087F0200087F0200086C
:100070007F020008A10C00087F0200087F02000830
:100080007F0200087F0200087F0200087F0200084C
:100090007F0200087F0200087F0200087F0200083C
:1000A0007F0200087F0200087F0200087F0200082C
:1000B0007F020008C12F00087F0200087F020008AD
:1000C0007F0200087F0200087F0200087F0200080C
:1000D0007F0200087F0200087F02000899350008AF
:1000E0007D0E00087F0200087F0200087F020008E2
:1000F0007F0200087F0200087F0200087F020008DC
:100100007F0200087F0200087F0200087F020008CB
:100110007F0200087F020008CD2F00087F02000840
:100120007F0200087F0200087F0200087F020008AB
:1001300000F002F800F03AF80AA090E8000C8244BF
:100140008344AAF10107DA4501D100F02FF8AFF29C
:10015000090EBAE80F0013F0010F18BFFB1A43F0A5
:1001600001031847044A0000244A0000103A24BF43
:1001700078C878C1FAD8520724BF30C830C144BF0C
:1001800004680C607047000000230024002500264E
:10019000103A28BF78C1FBD8520728BF30C148BFEA
:1001A0000B6070471FB51FBD10B510BD00F0AEF954
:1001B0001146FFF7F7FF03F0F7FA00F0CCF903B4AC
:1001C000FFF7F2FF03BC00F0CFF90000224B1968E3
:1001D0000868B0E8F00F80F30988BFF36F8F4FF025
:1001E000000080F311884EF00D0E704700000000F3
:1001F00006480068006880F3088862B661B6BFF3FD
:100200004F8FBFF36F8F00DF00BF00BF08ED00E02E
:10021000EFF30980BFF36F8F0F4B1A6820E9F00FDF
:10022000106008B54FF0500080F31188BFF34F8F76
:10023000BFF36F8F03F0C8FE4FF0000080F311880A
:10024000BDE8084019680868B0E8F00F80F3098835
:10025000BFF36F8F704700BF14000020EFF30580DD
:10026000704700000948804709480047FEE7FEE75D
:10027000FEE7FEE7FEE7FEE7FEE7FEE7FEE7FEE756
:1002800004480549054A064B70470000932F0008B3
:1002900031010008980A002098100020980C0020D6
:1002A000980C0020032A40F2308010F0030C00F07C
:1002B000158011F8013BBCF1020F624498BF11F8A0
:1002C00001CB00F8013B38BF11F8013BA2F1040259
:1002D00098BF00F801CB38BF00F8013B11F00303D1
:1002E00000F09C80083AC0F0088051F8043B083ABE
:1002F00051F804CBA0E80810F5E7121D5CBF51F8D7
:10030000043B40F8043BAFF30080D20724BF11F850
:10031000013B11F801CB48BF11F8012B24BF00F8B5
:10032000013B00F801CB48BF00F8012B7047431A8E
:1003300028BF9A427FF6B6AF032A1044114440F218
:10034000268010F0030F1EBF11F8013D521E00F869
:10035000013D10F0030F7FF4F6AF11F0030300F03E
:10036000A280083AC0F00B8051F8043D083A51F8D9
:1003700004CD40F8043D40F804CDFFF7F3BF121D53
:100380005CBF51F8043D40F8043DAFF30080D20754
:1003900024BF11F8013D11F801CD48BF11F8012C1F
:1003A00024BF00F8013D00F801CD48BF00F8012C42
:1003B00070474FF0000200B5134694469646203928
:1003C00022BFA0E80C50A0E80C50B1F12001BFF40E
:1003D000F7AF090728BFA0E80C5048BF0CC05DF874
:1003E00004EB890028BF40F8042B08BF704748BFC2
:1003F00020F8022B11F0804F18BF00F8012B704736
:1004000070477047704710B500F078F8006810BD6D
:1004100010B5044600F072F8046010BD10B5203A23
:10042000C0F00B80B1E81850203AA0E81850B1E8AD
:100430001850A0E81850BFF4F5AF5FEA027C24BF63
:10044000B1E81850A0E8185044BF18C918C0BDE85A
:1004500010405FEA827C24BF51F8043B40F8043B23
:1004600008BF7047D20728BF31F8023B48BF11F8D8
:10047000012B28BF20F8023B48BF00F8012B704732
:10048000431A28BF9A427FF6C9AF104410F0030FF9
:1004900011441EBF11F8013D521E00F8013D10F03D
:1004A000030F7FF4F6AF103AC0F00A8010B531E9BF
:1004B0001850103A20E91850BFF4F9AFBDE81040C9
:1004C000530724BF31E9081020E9081044BF51F850
:1004D000043D40F8043D12F0030F08BF7047D207F7
:1004E00028BF31F8023D48BF11F8012C28BF20F881
:1004F000023D48BF00F8012C7047000000487047DB
:10050000340A002000487047340A00207546FFF77F
:10051000F9FFAE4605006946534620F007008546C0
:1005200018B020B5FFF7ACFEBDE820404FF0000644
:100530004FF000074FF000084FF0000B21F00701CB
:10054000AC46ACE8C009ACE8C009ACE8C009ACE80E
:10055000C0098D46704710B50446AFF300802046B1
:10056000BDE81040FFF72BBE01491820ABBEFEE7E7
:1005700026000200704700000149002008807047F3
:10058000500000202DE9F0479AB002F04BFB08B173
:1005900002F042FB474C484D402103A802F07AFB91
:1005A00006006FD02888C0F5807080B2864203D9DB
:1005B000301A80B203F072F828883246204403A92A
:1005C000FFF770FE288830442880E5E7217802296B
:1005D00056D16178012902D0022937D050E008288D
:1005E00064D3E6880621334803F0A6F8864247D153
:1005F000608846BAA08847BA16A800F0D3F8092E3A
:1006000001D3002705E0F019092802D9C6F1090035
:1006100087B202208DF84C0001208DF84D008DF836
:100620004E70002016A913AA07E0331802EB000C45
:10063000CB5C401C8CF8033080B2B842F5D3FF1C71
:10064000B9B2104603F046FC08202AE008282DD352
:10065000618891FA91F9A1884EBA06F108018FB22A
:10066000B7F5807F0CD8B84220D3A019A046B0F8C7
:1006700006A0B01D81B20F4803F05EF8824502D09B
:1006800001200EE00FE008F106014846324600F076
:1006900057F80AA004210068029002A803F01AFC8F
:1006A000384602F0FBFF288808288FD21AB0BDE830
:1006B000F0870000CC06002050000020020201015B
:1006C000014800F00DBB000052000020014800F07E
:1006D0000FBB0000520000202DE9FC41074600201E
:1006E000164C0E4605462554401C0628FBDB684682
:1006F00000F0F6FA02223946684600F06BFB002053
:1007000002216A4602E0811C062902D2515C215472
:1007100000E02554401C0428F5DB104600F0E0FA08
:1007200000223146684600F055FB9DF80400207118
:100730009DF805006071BDE8FC81000052000020BA
:1007400010B500290FD0002A0DD00123144A01282A
:100750000AD002281CD0032805D1087801281DD012
:10076000002800D1937510BD0C780D4900200A2C8B
:10077000097808D00B2CF6D10029F4D010709074B1
:100780005075907510BD0129FCD013705074F7E7B7
:100790000878632800D96320908110BD537510BD7F
:1007A0005C00002010B504460020206060602072CC
:1007B00014480178012907D00B216170017BA170D9
:1007C000C17C19B10A2106E00A21F6E7017D49B191
:1007D000017C29B10C212171C17D29B10B2104E0DB
:1007E0000B21F8E70D21F6E70A21617180680649BF
:1007F00003F0A0FE03F01EFE010AA171E0711220B9
:10080000207210BD5C0000200000C842FEE700001E
:100810002DE9F041334C2046E27D017E02B909B159
:100820000A206074A07D002508B1A57565742D4867
:10083000637C0126032780680A2B4AD2DFE803F095
:10084000050E14171717353A3F46E5742575607D78
:10085000002801D065756674BDE8F08102F0BAFE2B
:10086000A560E673022028E02575E67419E0257579
:10087000E67403F0DFFD80B2A18902F041FB05467A
:10088000E073A06803F0D6FD80B2A18900F0CEF835
:1008900008B1062011E0012D03D0022D03D0052060
:1008A0000BE06774D8E7042007E0E574257525742C
:1008B000072002E0E574267508206074CCE7E57433
:1008C0002675B0F17E5FC7DC0920F6E7E574257573
:1008D00005E0E5742575002ABED10029BCD16574F8
:1008E000BAE700005C00002070B5002001F06EFF48
:1008F00000254D4C012608B1667000E065700120AE
:1009000001F064FF2178814207D020706575A575DC
:1009100008B165740BE0A57401E0012905D02078C9
:1009200000287FD1A07C20B370E0607CF8B9022061
:1009300001F0B4FF18B9022001F0BEFF20B1A08978
:10094000401CA08102F0C0FE032001F0A7FF18B9EF
:10095000032001F0B1FF28B1A08908B1401EA08199
:1009600002F0B2FE042001F099FF00B16675052087
:1009700051E0082001F092FF20B1A07B022817D09F
:10098000401CA073092001F089FF20B1E07B0328FF
:1009900010D0401CE0730A2001F080FF18B1207CC9
:1009A00050B100202074022001F078FF50B905E01A
:1009B000A573E7E7E673EEE70120F3E7022001F015
:1009C0007BFF20B1A089401CA08102F07DFE0320A6
:1009D00001F064FF18B9032001F06EFF28B1A0896F
:1009E00008B1401EA08102F06FFE042001F056FF06
:1009F00020B1A07B08B1012800D16675062001F066
:100A00004DFF18B1A07B022800D16675052001F0CA
:100A100045FF20B9072001F041FF002802D000E087
:100A200000E0A67570BD00005C000020401C8842FC
:100A300001D3012070470020704700000A49887CDC
:100A400070B101280ED0022809D10020C8740875A1
:100A5000CA7D002A03D10A7E002A00D1887470471B
:100A600002F064B802F084B85C00002070B502F0B7
:100A7000B7FD0E4C20B10E48456802F0A3FD65603D
:100A8000FFF732FF2078012801D1FFF7C1FE20785F
:100A900008B9FFF7D3FF00F00DF800F09DF800F063
:100AA00047F8BDE8704000F0E9B800005C000020A5
:100AB0004C08002070B502F085FD054602F064FE8A
:100AC000174A01241749002370B1B5F13F4F09D3EC
:100AD0001088192804D2401C80B21080192805D330
:100AE000CC7503E0138001E01380CB75087E0028ED
:100AF000486806D00C4A904200DC0B76C87D40B9AD
:100B000004E00A4A9042F9DB0C76F7E7087E0028F9
:100B100005D04B758C75022088740A20487470BD0E
:100B2000780000205C00002000006C420000704251
:100B300070B52748007808B1012500E000250024A1
:100B4000E0B201F0C7FE641C092CF9DB214C08203F
:100B5000E17D01F0D7FEE07D002838D1207E00281D
:100B600035D1082001F0C2FE2078012811D00028DC
:100B70002DD1A07C30B3012829D1284602F076F986
:100B80004FEA050002F096F9BDE87040012002F03E
:100B90004BB9607C09281AD2DFE800F01905050579
:100BA0000505190E0E000121002001F0ABFEBDE885
:100BB0007040012002F07EB9BDE87040012106209E
:100BC00001F0A0BE012002F051F90120DAE770BD6A
:100BD000000000205C00002010B5274CE07D08B923
:100BE000207E18B10020E074207505E0E07C18B18B
:100BF000052001F0F1FF02E0052001F0E1FF207D7A
:100C000000B3207CC8B1012001F0E6FF5FF00000D6
:100C100001F0D6FF022001F0D3FF032001F0D0FF46
:100C2000042001F0CDFFE07CB8B1E07B01280DD0BD
:100C300002280DD0032810D10CE0002001F0CCFFD9
:100C40000120E5E7002001F0BBFFF9E7022002E008
:100C5000032000E0042001F0BFFFE07D08B9207E02
:100C600020B1BDE81040062001F0B6BFBDE810403D
:100C7000062001F0A5BF00005C00002010B502F0C6
:100C800083FD064C38B102F09DFC10F1FF4F00D3FC
:100C90000020A06010BD6068FBE700005C00002041
:100CA00010B501F0E5FFBDE81040014800F0A8B91B
:100CB0007C01002030B590F840500124AC40C56B59
:100CC0006C60046863604368102B036803D099600C
:100CD0000068C26030BD9A600068C16030BD704776
:100CE00000210A464254491C0629FBDB82717047E9
:100CF0002DE9F041364F05464FF40066002231469B
:100D0000384600F03CFCA879401CC0B2A871062807
:100D100001D30020A871C0B201212C5C384644F3F5
:100D20000002521C00F02BFC44F340020221384622
:100D3000521C00F024FC44F3800204213846521C6B
:100D400000F01DFC44F3C00208213846521C00F09C
:100D500016FC44F3001210213846521C00F00FFC20
:100D600044F3401220213846521C00F008FC44F3A2
:100D7000801240213846521C00F001FC44F3C0129E
:100D800080213846521C00F0FAFBAC790022314633
:100D9000384600F0F4FB04F001024FF4807138464D
:100DA00000F0EDFBC4F340024FF40071384600F050
:100DB000E6FBC4F380024FF48061384600F0DFFBAD
:100DC00031463846BDE8F041012200F0D8BB0000B2
:100DD000000801402DE9F0470E4604462449254805
:100DE00015464FF07E578846814602F00FFD394682
:100DF00003F0A8FC314603F069FB07D241464846A0
:100E000002F004FD394603F09DFC064616F1FF4F43
:100E100000D30026284603F045FB0146484602F071
:100E2000F5FC314603F086FB03F0BEFA01460020D4
:100E300002462254401C0628FBDB05200E4F0A23E5
:100E4000C5F1050291FBF3F603FB161691FBF3F1D6
:100E5000BE5D2654062D03D2A65C46F08006A6543D
:100E6000824201DB002901D0401EEBD5BDE8F087AE
:100E70000000C04000002041384900084FF4805075
:100E800000F070BA72B6FEE710B590F8211000229B
:100E9000022905D00421816380F82020012010BDA3
:100EA00001680B6823F00E030B6001680B6823F0E8
:100EB00001030B6090F84030C46B012101FA03F389
:100EC000636080F8211080F82020104610BD0000DB
:100ED0002DE9F05F90F821100024022903D00421AD
:100EE0008163012485E001680A6822F00E020A602D
:100EF00001680A6822F001020A603F4E3E4FB215B7
:100F0000DFF8F4C0DFF8F090DFF8ECA0DFF8E8B02D
:100F1000DFF8E4E00168783F13011502ACF1640CDE
:100F2000A9F15009AAF13C0AABF1280BAEF1140E5D
:100F30004FF48018B14227D9B9420ED0614512D082
:100F400049451DD0514518D0594518D0714501D19A
:100F5000424615E0294EB14201D1012210E0274E50
:100F60001436B14201D110220AE0244E2836B14293
:100F700006D0224A3C32914201D11A4600E02A466C
:100F80001E49091F0A602BE0B94213D0614517D0F2
:100F9000494522D051451DD059451DD0714501D13B
:100FA00042461AE0B14202D14FF0807215E0134E72
:100FB000B14201D1012210E0104E1436B14201D1EC
:100FC00010220AE00D4E2836B14206D00B4A3C32C0
:100FD000914201D11A4600E02A46074980394A6009
:100FE000012180F82110002180F82010416B01B10F
:100FF00088472046BDE8F09F800002400804024078
:101000002DE9F05FC16B0A6801680B68046C4FF052
:10101000040808FA04F8844D844E854FDFF814C2A2
:10102000DFF81492DFF814A2DFF814B2DFF814E24C
:1010300018EA020F65D05FEA437862D50A68920623
:1010400003D40A6822F004020A60DFF8F0814FF44A
:101050008062016808F1140813011402414524D983
:10106000A9420DD0B1420FD0B9421AD0614515D076
:10107000494515D0514501D1120312E0594501D11E
:1010800004220EE0714501D140220AE06D4D143575
:10109000A94206D06B4A2832914201D11A4600E09B
:1010A00022466749091F0A6029E0A94213D0B142CC
:1010B00015D0B94220D061451BD049451BD05145C0
:1010C00002D14FF4800217E0414502D14FF0806217
:1010D00012E0594501D104220EE0714501D14022B0
:1010E0000AE0584D1435A94206D0564A283291429A
:1010F00001D11A4600E022464B4908394A60C16ACC
:1011000071E04FF0020808FA04F818EA020F70D0F4
:101110005FEA83786DD50A68920606D40A6822F0E1
:101120000A020A60012180F82110DFF810814FF4D3
:101130000072016808F1140813011402414524D912
:10114000A9420DD0B1420FD0B9421AD0614515D095
:10115000494515D0514501D1120312E0594501D13D
:1011600002220EE0714501D120220AE0354D1435EE
:10117000A94206D0334A2832914201D11A4600E0F2
:1011800022462F49091F0A6029E0A94213D0B14223
:1011900015D0B94220D061451BD049451BD05145DF
:1011A00002D14FF4001217E0414502D14FF0007216
:1011B00012E0594501D102220EE0714501D12022F1
:1011C0000AE0204D1435A94206D01E4A2832914229
:1011D00001D11A4600E02246134908394A6000212D
:1011E00080F82010816A00291CD0BDE8F05F084714
:1011F000FFE70825A540154214D01A0712D50A6842
:1012000022F00E020A6090F84020C36B012101FA1F
:1012100002F25A60816380F82110002180F82010CA
:10122000016BE0E7BDE8F09F080002401C000240AF
:101230003000024044000240580002406C0002406E
:10124000080402401C04024030B560B11A4B026829
:1012500014219A4209D2194B1344B3FBF1F18900CE
:10126000016417490AE0012030BD134B5B4213446F
:10127000B3FBF1F1890001640F490839C163022110
:1012800080F82110136843F6F0718B43F0E90114E4
:101290002143D0E902452C43214304692143446999
:1012A00021438469214319431160002141630122D4
:1012B00042770177084630BD08040240F8FFFDBFC1
:1012C0000000024070B5044690F820000025012877
:1012D0000CD0012084F8200094F821600020012E19
:1012E00006D084F820000225284670BD022070BD7B
:1012F000022684F82160A0632068066826F00106B3
:1013000006602046FFF7D6FCE06A002820680168E6
:1013100002D041F00E0106E021F0040101602068D6
:10132000016841F00A0101602068016841F0010193
:101330000160D9E770B5044600F026F90546601C47
:1013400002D004480078044400F01EF9401BA0427B
:10135000FAD370BD04000020B0F5805F01D101F028
:10136000BFBE7047044910B50A68024202D0086047
:10137000FFF7F2FF10BD0000140401402DE9F84F03
:10138000DFF8C8910024A9F1040B23460F2709F1C7
:10139000040AABF1040ED1E00125A54006EA0502DE
:1013A000AA4276D1DFF8A8C14E68A6EB0C086645C4
:1013B0002BD00DDC032E34D005DC36B3012E19D032
:1013C000022E2FD11BE0112E16D0122E2AD119E099
:1013D000B8F5881F19D006DCB8F5803F15D0B8F5F0
:1013E000801F1FD111E0B8F5001F0ED0B8F5041F03
:1013F00018D10AE0CB6815E0CB681B1D12E0CB6862
:1014000008330FE0CB680C330CE08B682BB1012B59
:101410004FF0080303D0456104E0042302E00561B6
:1014200000E00023FF2A01D8064601E000F104068F
:101430004FEA840501D9A5F12005D6F8008007FA06
:1014400005FC28EA0C0803FA05F548EA0508C6F881
:1014500000804D68ED0070D53E4DAE6946F0010646
:10146000AE61AD6924F0030605F0010500953A4D23
:1014700006EB050CDCF80850A607360F07FA06F84D
:1014800025EA0805DFF8D480404503D14FF0000875
:1014900025E052E0DFF8C880404502D14FF0010856
:1014A0001DE0DFF8C080404502D14FF0020816E091
:1014B000DFF8B480404502D14FF003080FE0DFF8B9
:1014C000AC80404502D14FF0040808E0DFF8A0806E
:1014D000404502D14FF0050801E04FF0060808FA38
:1014E00006F848EA0508CCF808804D68D9F800608D
:1014F000ED024D4601D5164300E096432E604D683F
:10150000DAF80060AD02554601D5164300E0964377
:101510002E604D68DBF80060AD035D4601D51643D3
:1015200000E096432E604D68DEF80060ED037546DE
:1015300001D5164300E096432E60641C0A681646E7
:10154000E2407FF429AFBDE8F88F000008040140B5
:10155000000011100010024000000140000801408E
:10156000000C01400010014000140140001801402F
:10157000001C01408068084000D0012070470AB17B
:10158000016170470904FBE701488068704700006B
:10159000040000200248816802781144816070478D
:1015A00004000020074810B5016841F010010160F7
:1015B000032000F0A7F80F2000F006F800F050F824
:1015C000002010BD0020024030B505461F4887B0FE
:1015D000C16941F01001C161C06906A900F01000A5
:1015E000009001A800F036F90498B0B100F052F96B
:1015F00040001749174AB0FBF1F11748491E026035
:10160000416040F2E7320021C0E90321816081613D
:1016100000F0E2FC040003D015E000F03BF9E8E73D
:101620000D4800F025FD04000DD1362000F03CF8F7
:10163000102D07D200222946362000F043F8074833
:10164000056000E0012407B0204630BD00100240D4
:1016500040420F0000100040C001002008000020A0
:101660000F4808B5816941F001018161816901F08C
:1016700001010091C16941F08051C161C06900223E
:1016800000F0805000900F21901E00F01BF80548DC
:10169000416821F0E06141F00071416008BD000047
:1016A0000010024000000140002809DB00F01F028A
:1016B000012191404009800000F1E020C0F80011B4
:1016C00070470000F0B40E4B1B680C46C3F30223B6
:1016D000C3F10705042D00D90425191D072901D2DE
:1016E000002300E0DB1E012606FA05F1491E214019
:1016F00099409E40761E16403143F0BC01F0A9BFD0
:101700000CED00E0064900F0070208684FF6FF0301
:10171000184040EA0220034A104308607047000066
:101720000CED00E00000FA052DE9F0470F4605003A
:1017300061D0434E306800F00700B84209D23068EB
:1017400020F0070038433060306800F00700B842EE
:1017500051D128683B4C810712D5400703D56068FA
:1017600040F4E06060602878000703D5606840F4CA
:10177000605060606068A96820F0F0000843606015
:101780002878C00728D06868012810D0216802286E
:1017900010D0890700292EDA616821F00301014386
:1017A0006160FFF7F1FE804641F288390DE0216863
:1017B0008903EFE78901EDE7FFF7E6FEA0EB0801FB
:1017C000494502D90320BDE8F0876068696800F0E8
:1017D0000C00B0EB810FEFD1306800F00700B84289
:1017E0000BD9306820F0070038433060306800F0D3
:1017F0000700B84201D00120E5E72878400705D569
:101800006068E96820F4E0600843606028780007B9
:1018100006D56068296920F4605040EAC100606024
:1018200000F058F86168084AC1F30311515CC840E0
:101830000649086006480068FFF7C6FE0020C2E7B8
:101840000020024000100240204900081000002043
:10185000080000200F2202600C4A536803F00303C3
:101860004360536803F0F0038360536803F4E0635C
:10187000C36052684FF4E06303EAD2020261044895
:10188000006800F007000860704700000010024088
:10189000002002400448054900684968044AC1F331
:1018A0000221515CC8407047100000200010024027
:1018B000304900080448054900684968044AC1F3F2
:1018C000C221515CC8407047100000200010024047
:1018D000304900080E4A51680E4801F00C03042BF1
:1018E00011D0082B0FD10C48C1F38343C903C05C4E
:1018F0000AD55168084AC1F34041921E515C054A1D
:101900005043B0FBF1F07047044948437047000072
:101910000010024000127A001049000800093D0042
:101920002DE9F84F040070D02078C04DC00749D091
:101930006868C0F38100012807D06868C0F381009F
:10194000022809D16868C00306D52868800339D504
:1019500060680028E7D035E06068B0F5803F0BD0C4
:1019600010B1B0F5A02F11D0286820F48030286085
:10197000286820F4802002E0286840F48030286045
:10198000606890B1FFF700FE06460AE0286840F460
:1019900080202860F0E700BFFFF7F6FD801B642879
:1019A00073D828688003F7D50CE0FFF7EDFD0646F5
:1019B00005E000BFFFF7E8FD801B6428F0D8286829
:1019C0008003F7D420789A4E80074FF001094FF03A
:1019D000000839D5686810F00C0F07D06868C0F3AC
:1019E0008100022809D16868C00306D428688007EE
:1019F00014D52069012808D110E02069B0B1C6F8DB
:101A00000090FFF7C1FD074605E00AE1FFF7BCFDC6
:101A1000C01B0228C4D828688007F7D528686169E8
:101A200020F0F80040EAC10028600DE0C6F8008010
:101A3000FFF7AAFD074604E0FFF7A6FDC01B02283A
:101A400023D828688007F7D4207800072CD5794858
:101A5000A169D9B1C0F80090FFF796FD074604E0F0
:101A6000FFF792FDC01B02280FD8686A8007F7D5E0
:101A700071484FF4FA510068B0FBF1F0009000BFDC
:101A80000098411E0091FAD20EE080E0C0F800807C
:101A9000FFF77AFD074604E0FFF776FDC01B02283A
:101AA00075D8686A8007F7D42078400760D5E86960
:101AB0000027C00008D4E86940F08050E861E86978
:101AC000012700F0805000905C480168C90513D4DC
:101AD0000168834641F480710160FFF755FD82463D
:101AE00006E000BFFFF750FDA0EB0A0064284ED8C7
:101AF000DBF80000C005F5D5E06801280AD008B180
:101B0000052813D0286A20F001002862286A20F0F6
:101B1000040002E0286A40F001002862E06841F217
:101B2000883B98B1FFF730FD82460BE0286A40F011
:101B300004002862EEE700BFFFF726FDA0EB0A01D4
:101B400059455AD8286A8007F6D50CE0FFF71CFDE6
:101B5000824605E0FFF718FDA0EB0A0159454CD875
:101B6000286A8007F6D41FB1E86920F08050E86148
:101B7000E06988B36968C1F38101022944D0022871
:101B8000C6F8608004D0FFF7FFFC044638E034E07C
:101B9000FFF7FAFC074604E0FFF7F6FCC01B02283B
:101BA0002BD828688001F7D4206AB0F5803F05D192
:101BB0006868A16820F4003008436860D4E908012F
:101BC0000843696821F4741108436860C6F860909E
:101BD000FFF7DAFC044606E025E000BFFFF7D4FC7F
:101BE000001B022809D828688001F7D51BE000BF38
:101BF000FFF7CAFC001B022802D90320BDE8F88FBA
:101C000028688001F4D40EE00128F7D06868226AC1
:101C100000F48031914204D1616A00F4701088426E
:101C200001D00120EAE70020E8E7000000100240B0
:101C30000000424280044242100000200070004038
:101C400070B5040009D0606A002540B12561656166
:101C5000A56294F8510040B10CE0012070BD6068AD
:101C6000B0F5827FF4D0E561F2E784F85050204669
:101C700000F040F8022084F851002068016821F04B
:101C800040010160A088218900F4827001F40441C0
:101C90000843A18901F400610843217C01F002019D
:101CA0000843217D01F001010843218B01F40071FB
:101CB0000843217F01F03801084394F8201001F017
:101CC00080010843218D01F4005108432168086018
:101CD000A069042101EA1040216848602068C169B8
:101CE00021F40061C1616565012084F85100002084
:101CF00070BD000030B585B00024009401940294BA
:101D0000039400681549884225D11548C16941F4FA
:101D10008041C161C16901F480410491816941F050
:101D20000801816180690F4D00F0080004904FF4B4
:101D3000204000900220019003200390694628462D
:101D4000FFF71CFB4FF48040CDE9000469462846AC
:101D50000294FFF713FB05B030BD000000380040CF
:101D600000100240000C01402DE9FF4F81B01D46DC
:101D7000934604464FF001090E9EFFF705FC074607
:101D800094F851006168012806D0B1F5827F3CD1FA
:101D9000A168C9BB042838D10298002871D0BBF1D2
:101DA000000FFBD0002DF9D094F8500001282CD062
:101DB0004FF0010A84F850A094F85100042802D092
:101DC000052084F851004FF00008C4F85480C4F88E
:101DD00038B0E587A58702992163E586A586C4F812
:101DE0004080C4F8448020680168490603D4016833
:101DF00041F040010160E068B0F5006F606808D014
:101E0000F0B3012D49D081E0FFE7022005B0BDE825
:101E1000F08F08B1012D39D1206B21680088C8608E
:101E2000206B801C2063E08E401EE0862EE0206840
:101E3000816889070FD5E18E69B1B9F1010F0AD127
:101E4000216B0988C160206B801C2063E08E401EDE
:101E5000E0864FF0000920688168C9070CD0E18F47
:101E600051B1C068A16B0880A06B801CA063E08F9B
:101E7000401EE0874FF00109FFF786FBC01B01E021
:101E80000BE067E0B04201D3701C50D1E08E002817
:101E9000CDD1E08F0028CAD13EE0206B21680078C8
:101EA0000873206B401C2063E08E401EE0862DE00E
:101EB0002068816889070FD5E18E69B1B9F1010FFA
:101EC0000AD1216B09780173206B401C2063E08EDE
:101ED000401EE0864FF0000920688168C9070CD0D9
:101EE000E18F51B1C068A16B0870A06B401CA0636A
:101EF000E08F401EE0874FF00109FFF745FBC01B54
:101F0000B04202D3701C01D011E086B1E08E0028EF
:101F1000CED1E08F0028CBD13A463146204600F0A2
:101F20000DFF50B12020606584F8508012E084F8E5
:101F300051A084F85080032068E7A06818B9206891
:101F4000C1688068009084F851A084F85080606D6A
:101F50000028F1D0012059E77047704770B590F81C
:101F60003C20012A2CD0012480F83C40022280F839
:101F70003D2003685A689D6822F070060A68324363
:101F80005A60104B02689A420ED00F4B9A420BD007
:101F9000B2F1804F08D00D4B9A4205D00C4B9A42BB
:101FA00002D00C4B9A4204D1496825F080031943B2
:101FB000916080F83D40002180F83C10084670BDDB
:101FC000022070BD002C014000340140000400409C
:101FD00000080040000C004010B5040003D094F845
:101FE0003D0010B107E0012010BD002084F83C0046
:101FF000204600F01FF8022084F83D00211D2068D3
:1020000000F0EAFF012084F8460084F83E0084F8DE
:102010003F0084F8400084F8410084F8420084F8CE
:10202000430084F8440084F8450084F83D00002013
:1020300010BD000008B500680B49884212D10B485A
:10204000C16941F00201C161C069002200F00200D3
:10205000009007211D20FFF735FBBDE808401D203B
:10206000FFF722BB08BD0000000400400010024042
:1020700090F83D10012901D001207047022180F81D
:102080003D100168CA6842F00102CA6000680E494A
:1020900088420ED00D4988420BD0B0F1804F08D055
:1020A0000B49884205D00B49884202D00A49884230
:1020B00004D1816801F00701062903D0016841F0CD
:1020C0000101016000207047002C014000340140F4
:1020D0000004004000080040000C004070B50446B9
:1020E00090F83C000025012817D0012684F83C60B8
:1020F000022084F83D002068826822F0770222F4F2
:102100007F4282600868502838D00DDC20284FD0EC
:1021100005DC90B3102811D14AE0022070BD3028B0
:1021200046D040280AD13BE060282FD070280DD03F
:10213000B0F5805F03D0B0F5005F12D0012584F8C0
:102140003D60002084F83C00284670BDCB68D1E992
:102150000121206800F08EFF2068816841F077013E
:1021600009E0CB68D1E90121206800F083FF2068F5
:10217000816841F480418160E1E719E0CA684968FB
:10218000206800F089FF5021206806E0CA6849688D
:10219000206800F092FF6021206800F075FFCEE714
:1021A000CA684968206800F077FF40212068F4E79A
:1021B000226801461046F0E770472DE9F0410446D9
:1021C0000068C66805694FF00007A90713D5B10775
:1021D00011D5F91E016101202077206880698007F0
:1021E000204602D0FFF7E8FF04E000F07EF820462A
:1021F00000F07CF82777680716D5700714D521689A
:102200006FF004000861022020772068806910F4D4
:10221000407F204602D0FFF7CFFF04E000F065F8D2
:10222000204600F063F82777280715D5300713D527
:1022300021686FF008000861042020772068C069D9
:102240008007204602D0FFF7B7FF04E000F04DF80A
:10225000204600F04BF82777E80616D5F00614D58F
:1022600021686FF010000861082020772068C0699D
:1022700010F4407F204602D0FFF79EFF04E000F0FC
:1022800034F8204600F032F82777E80708D0F00746
:1022900006D021686FF001000861204600F028F8A0
:1022A000280608D5300606D521686FF08000086141
:1022B0002046FFF751FE680608D5700606D521684E
:1022C0006FF040000861204600F038F8A8060AD5F3
:1022D000B00608D521686FF0200008612046BDE8EF
:1022E000F041FFF73ABEBDE8F0817047704700004B
:1022F00010B500680E49884203D1BDE81040FFF7D1
:1023000049B90C49884211D1FEF7E0F900F068FAAA
:1023100009484188491C89B24180B1F5FA7F05D34B
:1023200000214180017881F00101017010BD0000A1
:10233000001000400004004000000020704770477B
:1023400070470000F8B5016804460868CA684B6920
:1023500010F00F0F4FF000055AD003F0010602F401
:102360009077374365D0C10705D0D10503D5616C9F
:1023700041F001016164410705D5D90703D0616CC3
:1023800041F002016164810705D5D90703D0616C72
:1023900041F004016164010707D502F020013143D7
:1023A00003D0616C41F008016164616C00293BD08D
:1023B000800604D5900602D5204600F0ADFF2068C7
:1023C0004069616CC0F3801001F0080101432046B0
:1023D0002BD000F06CFF20684069400621D52068B2
:1023E000143050E8001F21F0400140E80012002A9C
:1023F000F5D1E06BA8B16D494163E06BFEF768FD74
:10240000002811D0E06B416B01B0BDE8F0400847F7
:1024100083060ED593060CD52046BDE8F84000F0A3
:102420007BBF2046FFF78CFFF8BDFFF789FF65648F
:10243000F8BD266B2023012E7CD1C6067AD5D606A0
:1024400078D508684868009048694FF00206400651
:1024500040D5E16B086840680004000CE8D0A28D0C
:102460008242E5D9E085886920282DD020680C308B
:1024700050E8001F21F4807140E80012002AF5D1D5
:102480002168143151E8000F20F0010041E80002FA
:10249000002AF5D12068143050E8001F21F04001D7
:1024A00040E80012002AF5D184F842302563206804
:1024B0000C3050E8001F21F0100140E80012002A03
:1024C000F5D1E06BFEF7E0FC6663A08DE18D401A6C
:1024D00081B22AE0A08DE18D401A81B2E08D002802
:1024E000A6D00029A4D022680C3252E8000F20F4B4
:1024F000907042E80007002FF5D12068143050E8B2
:10250000002F22F0010240E80027002FF5D184F8C7
:102510004230256320680C3050E8002F22F0100272
:1025200040E80023002BF5D166632046FFF707FF44
:10253000F8BDFFE705062BD5150629D594F841000F
:102540002128F5D1A068B0F5805F01D12069B0B134
:10255000206A411C2162216800784860E08C401E9E
:102560000004000CE084E3D12068C16821F0800100
:10257000C1602068C16841F04001C160D8E7206AAD
:102580000088C0F308004860206A801C2062E5E7EC
:102590004006CDD55006CBD5CA68204622F0400271
:1025A000CA6084F8413000F0EFF8C1E7B1310008AB
:1025B00070B5040004D094F84100002510B106E085
:1025C000012070BD84F84050204600F023F82420FC
:1025D00084F841002068C16821F40051C1602046A0
:1025E00000F0FCFE2068016921F49041016120683F
:1025F000416921F02A0141612068C16841F400511C
:10260000C1606564202084F8410084F8420065635D
:10261000002070BD70B586B0002506460095019576
:102620000295039500682349884240D12249C86930
:1026300040F48020C861C86900F480200490886953
:1026400040F00800886188691C4C00F00800049084
:10265000081500900220019003200390694620464F
:10266000FEF78CFEE014CDE9000569462046029590
:10267000FEF784FE134C1248C4E900058020C4E92B
:10268000025020202561C4E905500002E061204687
:10269000FEF7DAFD08B1FEF7F5FBF4630022052131
:1026A00027206662FFF70EF82720FEF7FDFF06B031
:1026B00070BD00000048004000100240000C0140C6
:1026C000300002407C01002090F84230202B01D0E5
:1026D0000220704721B11AB10023036300F0DABE73
:1026E00001207047704770472DE9F843044690F881
:1026F0004100984616460D46202802D00220BDE82B
:10270000F88385B17EB100206064212084F8410007
:10271000FEF73AFFA6848146E684A0682027B0F53C
:10272000805F02D003E00120E9E7206910B12E4666
:1027300000250EE000260CE08021204600F0F2FE8D
:10274000A8B9C6B116F8010B21684860E08C401E9C
:10275000E084E08C4B464FF00002CDF8008000286A
:10276000EAD14FF04001204600F0DCFE40B184F891
:1027700041700320C3E735F8020BC0F30800E3E71C
:1027800084F841700020BAE77047FEE72DE9F04178
:1027900000240C4E0C4F254606EBC400818856F8E9
:1027A0003400FEF7E7FE07F8340007EBC401641CB1
:1027B0004870CD708D708D80CD800B2CECDBBDE82A
:1027C000F0810000444900085C080020034911F82A
:1027D000300008B100207047012070475C080020DD
:1027E0002DE9F047DFF8B0800025DFF8A89008F168
:1027F00058074FF0030A2E4608EBC50109EBC50444
:10280000898858F83500FEF7B5FE6178814205D118
:10281000A178052903D2491CA17000E0A670607060
:10282000A17803290AD32178814206D02070795DEE
:10283000012907D040B10220E070A670785D02281F
:1028400007D008E0E670F8E70120E070A680E68097
:10285000F3E7207808B1A68016E0E078012814D0CC
:10286000A088401C80B2A080C8280BD00DD9E08879
:1028700000F1010080B2E080142806D3E68084F8DD
:1028800003A002E084F803A0E6806D1C0B2DB3DBEF
:10289000BDE8F0875C08002044490008054901EBC9
:1028A000C000C178012901D0002070470021C1700B
:1028B000012070475C080020054901EBC000C17889
:1028C000032901D0002070470021C170012070470A
:1028D0005C080020044A02EBC00152F830008988ED
:1028E0000122FEF74CBE0000A8490008044A02EB92
:1028F000C00152F8300089880022FEF740BE000077
:10290000A849000809B1FFF7F1BFFFF7E3BF0000D6
:10291000094808B5416941F001014161406900225F
:1029200000F00100009005210D20FEF7CBFEBDE870
:1029300008400D20FEF7B8BE001002402DE9F04F10
:1029400085B000243A48009401940294039481696C
:1029500041F010018161816901F0100104918169E8
:1029600041F020018161816901F0200104918169B8
:1029700041F004018161816901F0040104918169E0
:1029800041F0080181618069DFF8A89000F008003B
:10299000049001221F214846FEF7F1FDDFF898A0C0
:1029A00049F6FF77012239465046FEF7E8FDDFF889
:1029B0008CB040F2FF38012241465846FEF7DFFD59
:1029C0004FF6E07001258DE8310069464846FEF774
:1029D000D5FC1F200226CDE90005CDE90246694657
:1029E0004846FEF7CBFC00970396CDE901546946B3
:1029F0005046FEF7C3FCCDF800800396CDE90154A4
:102A000069465846FEF7BAFC280300900C48CDE909
:102A1000010569465846FEF7B1FC00220621282030
:102A2000FEF750FE2820FEF73FFE05B0BDE8F08F10
:102A3000001002400010014000080140000C01405D
:102A400000002110104810B50E4901604FF482714A
:102A50004160002102228160C0E90312012242612B
:102A6000520282611822C0E90721416281620A2173
:102A7000C162FFF7E5F8002803D0BDE81040FEF77B
:102A800001BA10BD003800409400002010B586B097
:102A90000024174800940194029403940494134969
:102AA000059401604721C0E9011440F2E731C0E913
:102AB000031480218161FFF78FFA08B1FEF7E2F974
:102AC0004FF48050009069460948FFF707FB08B1B2
:102AD000FEF7D8F9049404A905480594FFF73EFAD7
:102AE000002801D0FEF7CEF906B010BD000400406A
:102AF000EC0000200C4810B50A4901604FF4E131A8
:102B00004160002181600C22C160C0E90412816132
:102B1000C161FFF74DFD002803D0BDE81040FEF76E
:102B2000B1B910BD004800403401002070B50F4C11
:102B30000025E5742575607D002809D0A07B01265D
:102B400038B1012805D0022802D165752675A67412
:102B500070BD657538B900F03DFDA5602846A189B6
:102B600000F0CEF9E073E674F1E700005C000020AD
:102B700070B5114C0025A07D18B1A575E5742575BB
:102B8000A574A07B002815D1E07C002812D0A06895
:102B900001F050FC80B2A18900F0B2F9E073A068A6
:102BA00001F048FC80B2A189FDF740FF002801D068
:102BB000E574A57470BD00005C000020FEE7FEE730
:102BC000044A02EBC00152F8300089880122FEF766
:102BD000D6BC0000F0490008044A02EBC00152F8DC
:102BE000300089880022FEF7CABC0000F0490008C6
:102BF00010B50024E0B2FFF76DFE641C092CF9DB70
:102C00000024E0B2FFF7DCFF641C072CF9DBBDE811
:102C1000104000F08BB80000014900200870704798
:102C200088000020014800787047000088000020DC
:102C300010B500224FF400710948FEF7A0FC0949C5
:102C4000002048800870802207490848FFF73CFDB3
:102C500006480068C16841F01001C16010BD000065
:102C6000000C014088000020B4080020340100203E
:102C7000074882B000680168C943C90605D40168E5
:102C80004068009002B001F0F9B802B0704700004F
:102C90003401002070B504460020094A094B07E0C2
:102CA000D5885D5D2554D5886D1CEDB2D580401C5E
:102CB000884203D2D5889688B542F1D170BD000014
:102CC00088000020340900202DE9F04117460C4609
:102CD000050014D09CB10122DFF84880560231462D
:102CE0004046FEF74CFCA2B23B4629460E48FFF791
:102CF000FBFC38B1002231464046FEF740FC002084
:102D0000BDE8F081084800680168C9434906FBD462
:102D10006FF040010160002231464046FEF72FFC73
:102D20000120EDE7000C01403401002000224FF4A7
:102D300000710148FEF723BC000C0140F8B51546B0
:102D40000E460B46009204460122022100F010F8C4
:102D500040B93346002280212046009500F008F853
:102D6000002804D0606D40F0200060650320F8BDAD
:102D70002DE9F8431E46914688460446089DFEF715
:102D800003FC401B351AFEF7FFFB07462548006889
:102D9000C0F3CB30684338E0701C37D0FEF7F4FB4B
:102DA000C01BA84203D215B1009860B32CE0206884
:102DB000416821F0E00141606068B0F5827F0BD18D
:102DC000A068B0F5004F02D0B0F5806F04D1206844
:102DD000016821F040010160A06AB0F5005F09D1EF
:102DE0002068016821F4005101602068016841F405
:102DF00000510160012084F85100002084F8500047
:102E00000320BDE8F8830025401E009020688168FB
:102E100038EA010004D000214945BDD10020F0E787
:102E20000121F9E71000002070B50F4C0546A07B8A
:102E3000022804D000210620FFF764FD0AE00DB14E
:102E4000207C68B100210620FFF75CFD15B1207CD5
:102E5000012807D00021BDE870400720FFF752BDD0
:102E60000121F0E70121F6E75C00002070B5104D6C
:102E7000040001D0A87BA8B100210020FFF742FD8B
:102E800014B1A87B01280FD000210120FFF73AFDE3
:102E900014B1A87B022809D00021BDE870400220AF
:102EA000FFF730BD0121E8E70121EEE70121F4E75A
:102EB0005C00002070B5114D040002D0E87B0128B1
:102EC00015D000210320FFF71DFD14B1E87B022877
:102ED0000FD000210420FFF715FD14B1E87B032873
:102EE00009D00021BDE870400520FFF70BBD01218E
:102EF000E8E70121EEE70121F4E700005C00002093
:102F000049B1081A80B2052801D90120704702286A
:102F100001D9022070470320704710B54FF0E02020
:102F2000006901F099F8012803D0BDE8104001F0D4
:102F30007DB810BD30B58FB028216846FDF739FA4D
:102F400014210AA8FDF735FA01210804CDE9001083
:102F50000024029402250491CDE907504FF4E010BB
:102F600009906846FEF7DCFC08B172B6FEE70F2058
:102F7000CDE90A054FF48060CDE90C4002210AA892
:102F80000E94FEF7D1FB002801D072B6FEE70FB019
:102F900030BD704709480021022201704170416034
:102FA000816081818273C173017441748174C174C1
:102FB000017541758175C175017670475C0000200F
:102FC0000148FFF7FAB80000EC0000200148FFF7C5
:102FD000F4B80000C0010020F0B50268204C214D7B
:102FE000214E224F224B4FF0804CA04209D09842F4
:102FF00007D0604505D0A84203D0B04201D0B84206
:1030000004D122F0700E4A6842EA0E02A04209D0B2
:10301000984207D0604505D0A84203D0B04201D005
:10302000B84203D122F44075CA682A434D6922F0A0
:1030300080022A4302608A68C2620A688262A042F1
:1030400001D0984201D109690163012141610169FF
:10305000C90703D0016921F001010161F0BD000041
:10306000002C01400004004000080040000C00401B
:103070000034014010B5846842EA032224F47F44FE
:103080000A432243826010BD826822F070020A4324
:1030900042F007018160704710B5036A046A24F0AA
:1030A00001040462846924F0F00444EA021423F069
:1030B0000A020A438461026210BD10B5036A046A01
:1030C00024F010040462846923F0A00324F4704403
:1030D00044EA023243EA01118261016210BD00003C
:1030E00001490120087070479000002070B5FF254D
:1030F0000024284600F036FF641C042CF9DB012074
:10310000FEF718F90C24202000F02CFF204600F0D8
:1031100029FF5624102000F025FF204600F022FF52
:10312000BDE870404FF4FA7000F01AB870B50400B2
:1031300013D0382000F016FF642000F011F80028AA
:103140000AD0002000F00EFF0546002000F00AFF24
:1031500040EA05202080012070BD002070BD0000E5
:1031600070B50546FEF710FA06460DB94FF0FF356B
:103170000E4C207820B100F0F9FA08B1002000E0F0
:10318000207820700BE0207810B1002020700AE039
:10319000FEF7FAF9801BA84201D3002070BD00F0B1
:1031A000E5FA0028EFD0012070BD0000900000205B
:1031B00010B5406A0021C185C184FFF7C1F810BD78
:1031C00070B5446A2068406994F84110C0F3C0109B
:1031D0000025212904D118B1E584204600F08EF89D
:1031E0002068406994F84210C0F38010222904D16D
:1031F00018B1E585204600F05AF8606C40F01000E8
:1032000060642046FFF79CF870BD10B50146406A27
:10321000096809684FF0000289062ED4C28501684A
:103220000C3151E8003F23F4807341E80034002C56
:10323000F5D10168143151E8003F23F0010341E862
:103240000034002CF5D10168143151E8003F23F01F
:10325000400341E80034002CF5D1202180F84210D1
:10326000016B012909D101680C3151E8003F23F0BD
:10327000100341E80034002CF5D14263016B0129B1
:1032800002D0FFF72FFA10BD818DFFF758F810BD5F
:1032900010B5406A01214163016B012902D0FFF79B
:1032A00022FA10BD818D4908FFF749F810BD016869
:1032B0000C3151E8002F22F4907241E80023002BDA
:1032C000F5D10168143151E8002F22F0010241E8E4
:1032D0000023002BF5D1016B012909D101680C31C4
:1032E00051E8002F22F0100241E80023002BF5D115
:1032F000202180F8421000210163704701680C31E1
:1033000051E8002F22F0C00241E80023002BF5D144
:10331000202180F84110704708B590F8421022290A
:1033200001D0022008BD82684FF480539A4201D137
:10333000016921B1816A9A421BD04AB10AE0026850
:10334000816A5268C2F308020A80816A891C08E017
:10335000026972B10268526802F07F020A70816AE3
:10336000491C8162C18D491E0904090CC18503D025
:103370001BE002685268F1E70168CA6822F0200287
:10338000CA600168CA6822F48072CA6001684A692A
:1033900022F001024A61202180F84210002141639D
:1033A000026B012A03D0FFF79DF9002008BD0163DD
:1033B00001680C3151E8002F22F0100241E800238F
:1033C000002BF5D101680A68D20602D50A6849685F
:1033D0000091818DFEF7B3FFE7E7000070B504466A
:1033E00000680169E26821F44051114301612169DB
:1033F000A0680843616908432168CA6841F20C6308
:103400009A430243CA6020684169A26921F440716D
:10341000114341611E492068884202D1FEF74AFAF1
:1034200001E0FEF737FA00EBC00101EB0012606823
:1034300064218000B2FBF0F3B3FBF1F36FF01806E8
:103440007343B2FBF0F5B2FBF0F605EB83053223D4
:1034500003EB0515B5FBF1F5B6FBF1F605F0F0054C
:1034600005EB0615B2FBF0F6B2FBF0F0B0FBF1F0A5
:103470006FF01802504306EB800003EB0010B0FB26
:10348000F1F0216800F00F002844886070BD000052
:103490000038014038B58162044682850020134619
:1034A0006064222284F84220E56B1B4AAA62E56B25
:1034B0001A4AEA62E56B1A4A2A63E26B50630A46CB
:1034C0002168E06B091DFDF7FDFE2068016840687A
:1034D0000090206948B120680C3050E8001F41F48A
:1034E000807140E80012002AF5D12068143050E8BD
:1034F000001F41F0010140E80012002AF5D12068C8
:10350000143050E8001F41F0400140E80012002A4A
:10351000F5D1002038BD00000B32000891320008C0
:10352000C13100082DE9F843984617460D46044678
:10353000089E24E0701C22D0FEF726F8A0EB0800BD
:10354000B0421AD8CEB12068C168490717D5802D7E
:1035500015D0402D13D00168C94309070FD4016865
:103560000025406800902046FFF7A1FE0820606417
:1035700084F840500120BDE8F8830320FBE7206871
:10358000006835EA000004D00020B842D2D0002004
:10359000F1E70120F9E7000010B5FFF769FBBDE88E
:1035A00010400148FEF7CEBE34010020FEE70000C7
:1035B0000348002101604160816001737047000091
:1035C0004C08002002488168006801F0BBB8000088
:1035D0004C08002001480168816070474C080020B9
:1035E000F8B56846FFF7A2FD0E4CB8B1BDF8000073
:1035F00000F074F8266805460B4F314601F0A2F83A
:10360000394600F097FF314600F098FD20602846CB
:1036100000F07EFC606001202073F8BD0020207364
:10362000F8BD00004C080020CDCC4C3E4100080203
:1036300018BF04200A0E18BF40F001004FF07F426F
:1036400032EA010108BF40F00200012808BF05204E
:1036500070470907090E002804DB00F1E02080F81C
:103660000014704700F00F0000F1E02080F8141DF6
:10367000704700214FF07E5000F0D4BD00F05EBDD9
:103680000021084600F0CEBD61214FF0E04001F07E
:1036900000B96FF05E01080701F0FBB870B5084D86
:1036A00004462888844201D3002006E0021B054816
:1036B0000119FCF73CFE2888001B288070BD000023
:1036C00050000020CC060020034881893B2901D905
:1036D0003B218181704700005C00002070B50646E8
:1036E00013480488418804F10A00814201D800206F
:1036F00070BD081B00F0BEFE0546301B00F0BAFE90
:10370000294600F08FFD0B4D294600F013FF0026DF
:103710000446314600F0DAFE01D2304670BD29463B
:10372000204600F0D3FF01D2284670BD204670BD70
:103730007C0000200000C84270B504464FF6FF70C0
:103740004AF2010500220EE0A35C58400023C607A0
:1037500002D085EA500000E040085B1CDBB2082B79
:10376000F5D3521C92B28A42EED370BD10B54FF41D
:1037700080510448FDF7FEFE08B1002010BD012075
:1037800010BD0000000C014006480178012904D05A
:10379000807C012800D000207047407C0028FBD0AE
:1037A000012070475C000020FDF7FCFEFFF7C2FB24
:1037B000FFF7C4F8FFF7ACF8FFF744F9FFF766F935
:1037C000FFF798F90F48FEF753FCFCF779FFFCF779
:1037D000D3FEFFF78BFCFFF72BFAFFF709FAFEF792
:1037E000D5FFFFF7E5FEFFF7D5FB074CFDF73EF9E8
:1037F000A08900F057FE0146A068FCF76DFFFCF7BA
:10380000C1FEF3E7EC0000205C0000202DE9F04D44
:103810000E460023A0F5000C4FF00071354684B031
:1038200002464FF07E5401EB45014FF07F48BCF15A
:10383000FE4F80F09F81B1F1804FC0F0DB81FE49E7
:103840000144B1F5005F40F2A78200F58021C90C68
:1038500001F00F07C1F307117F39A2EBC15501EB4E
:10386000030B384600F006FE6FF0030101F011F87B
:103870004FF07E5100F062FC01460290284600F0B5
:1038800061FF01902846029900F058FC00F5006A9B
:103890006FF30B0A00905146029800F053FF29463F
:1038A00000F04CFC02904FF07E50009900F0BAFC02
:1038B00001460090019800F03DFE00F500656FF3B1
:1038C0000B052846029900F035FE02905146284625
:1038D00000F030FE019900F02AFF029900F032FF5B
:1038E000009900F027FE01460190284600F026FCD2
:1038F0000146029000F01EFE8246D04900F01AFEFA
:10390000CF4900F01BFC514600F014FE8246002116
:10391000284600F0BEFF00905146029800F00AFED3
:1039200005460021019800F0B4FF294600F006FC8E
:1039300082460146009800F001FC00F500656FF337
:103940000B052946009800F0FDFE514600F0F6FBFD
:103950008246BC49284600F0EDFD0090BA49504629
:1039600000F0E8FD8246B949284600F0E3FD5146E3
:1039700000F0E4FB82460146009800F0DFFB00F512
:1039800000656FF30B052946009800F0DBFE5146F9
:1039900000F0D4FB8246AE48784450F8371000EB74
:1039A000C700019147684FEA0B1000F063FD0090DB
:1039B0003946504600F0C2FB294600F0BFFB019992
:1039C00000F0BCFB009900F0B9FB00F5006B6FF351
:1039D0000B0B5846009900F0B5FE019900F0B2FEBD
:1039E000294600F0AFFE394600F0ACFE514600F02B
:1039F0009EFE06F5006782466FF30B073946304698
:103A000000F0A0FE0021009008464FF0000000F0FA
:103A10000C063946584600F08DFD054620F0004062
:103A2000B0F18B4F0ADDB8EB400F07D34FF08B405E
:103A300060F31E052F464FF0000A1FE0384600993C
:103A400000F07CFB514600F075FD07465846009992
:103A500000F070FD394600F071FB824601462846B1
:103A600000F06CFB00F500676FF30B073946284642
:103A700000F068FE514600F061FB824631460C20A2
:103A80004FF000005146384600F058FB00F0A8FC0B
:103A90000646051100F0EEFC394600F048FE51469E
:103AA00000F04CFB07466B4900F044FD6A4900F00A
:103AB00045FB394600F03EFD684900F03FFB3946C2
:103AC00000F038FD0146664806F00F06784450F8CD
:103AD000260000F02FFD6349794451F8261000F0CC
:103AE0002DFB6149794451F8261000F027FB05F1C0
:103AF0007D01FC2908D2294600F0CBFE04B0214606
:103B0000BDE8F04D00F016BD05F1BF01B1F5BF7F76
:103B100016D8294600F0BDFE214600F00BFD0546F3
:103B2000B8EB450F1AD068000CD02846FFF77EFD91
:103B3000042808BFFFF7ADFD284604B0BDE8F08DAE
:103B4000002D0BDA0220FCF763FCFFF7A2FD014613
:103B5000204604B061F31E00BDE8F08D0220FCF7A2
:103B600057FCFFF791FD0146204604B061F31E00AB
:103B7000BDE8F08DB1F1804F3CD300BF00F1FF41B3
:103B8000B1F1FE4F21D200BF20F00042C5F3C75172
:103B900010467F290DDB9729BFF651AEC1F1960182
:103BA0004FF0010C0CFA01F1A1F1010C1CEA050F18
:103BB00007D00120FCF72CFC04B0BDE8F04DFFF766
:103BC0005FBD294218BF294C39E641001CBF4FF0A8
:103BD0008071B1EB400F09D91B2100F05AFE02465B
:103BE0006FF01A0310F0004FCED128E6BCF1FE4F63
:103BF00018D224E6B1F1007F0ED336F0004105D093
:103C000006F0004141F0FC552E46B7E7410018BFD1
:103C1000B8EB400F78D8B1E7B1F1807F38BFA5F598
:103C20000006ABD320F000416FF0FF4C104C01EBCD
:103C30000C03A3422FD31DE0001080C07EE24C3E57
:103C4000ABAAAA3E00B038423BAA3842D49AB8BBCD
:103C50008C100000FC596337C9FF753A1872313D6A
:103C6000581000000C100000C00F0000000080BFC2
:103C7000FFFF3F0025F000439C44A4450BD3B0F167
:103C80007E5F18BF5FEA450C3ED0B1F1FF4F98BF91
:103C9000B3F1FF4F05D904B03146BDE8F04DFFF751
:103CA000EDBCB0F1FF4F0FD0C5F3C7517F2909DB41
:103CB000972911DAC1F19601012202FA01F14A1E97
:103CC0002A4205D0002108E015F0004F55D128E028
:103CD000294218BF012100D1022110F5000F14D094
:103CE00020B3B0F1004F27D010F1814F4ED04FF0EC
:103CF000FE41B1EB400F94BF01200020012101EBF8
:103D0000E571884239D10CE040E015F0004F02D057
:103D1000012936D031E0012902BF3F4804B0BDE897
:103D2000F08D4FF0FF4004B0BDE8F08D15F000407D
:103D30000ED104B0BDE8F08DB5F1FF4F1DD015F5E3
:103D4000000F05D015F0004F14D009B1012907D09C
:103D50000220FCF75DFB04B0BDE8F04DFFF789BC25
:103D60000220FCF755FBFFF784FC04B080F0004014
:103D7000BDE8F08D09B1012903D004B00020BDE8F1
:103D8000F08D04B04FF00040BDE8F08D04B04FF06E
:103D90007E50BDE8F08D00BF4FF07E5100F0D2FCA8
:103DA00005466FF0010100F074FD1C4900F0BFFCF6
:103DB000294600F0BFFB4FF07C5100F0B8FC0746ED
:103DC0002946084600F0B6FB80F00040394600F076
:103DD000B1FB82461249284600F0ACFB0746114968
:103DE000504600F0A7FB82460F49284600F0A2FB90
:103DF000514600F0A3F905460146384600F09EF909
:103E000000F5006B6FF30B0B5946384600F09AFC37
:103E1000294600F093F9ECE5000080FFABAAAA3E2A
:103E200000B0B8413BAAB841D49A38BB0648416BB0
:103E3000096829B1416BC968C968496881627047DE
:103E40004FF0FF31FAE7000014000020F0B5002326
:103E5000084A094D0BE09488D688641CE4B2B44249
:103E600007D0C65C9788EE5594805B1C9BB28B4252
:103E7000F1D3F0BD880000203409002070B512484D
:103E8000C06B00684068114CC0F1800085B260884A
:103E9000854217D061880E488D42618804D9691A1D
:103EA000628889B2104408E0C1F18001628889B259
:103EB0001044FFF7CBFF29460548FFF7C7FF658091
:103EC0000120207070BD0000340100208800002017
:103ED000B408002010B50C46891CCCB0B1F5967F13
:103EE00013D8014622466846FCF7DCF921466846AD
:103EF000FFF722FC0DF804000DEB0401000A4870E6
:103F00003222A11C6846FEF7DFFE4CB010BD000057
:103F10002DE9F041124C114F0646A588A06857F8CC
:103F2000251000F00FFC014647F82560304600F0F0
:103F300005F906466D1CA06005F01F00A080E08812
:103F4000202801D2401CE08080B200F0ABFA01468C
:103F50003046BDE8F04100F065B90000CC07002014
:103F60007C00002001B582B000208DF80400401EC6
:103F70000090012301AA02A90248FDF7F5FE9DF871
:103F800004000EBD94000020D0E9013201699A605E
:103F9000D0E901235A604A68824201D182684A60AE
:103FA000002202610868401E086008687047426885
:103FB0004A6093688B6093685960916008610168FA
:103FC000491C016070470000164810B5016B11B123
:103FD0000121C16110BD0021C1610169124A01E0E6
:103FE000B9B1491E01EB810352F82330002BF7D001
:103FF00001EB810302EB830202F1080453685B6862
:104000005360A34201D15B685360DA6802600161CA
:1040100010BD502080F31188BFF34F8FBFF36F8F17
:10402000FEE70000140000200802002010B5502018
:1040300080F31188BFF34F8FBFF36F8F00F01AF832
:1040400018B104494FF080500860002080F31188B7
:1040500010BD000004ED00E00548416919B1006B96
:1040600018B10020704701207047022070470000FF
:10407000140000202DE9F0412E4C0027206B28B1C0
:10408000A069401CA0613846BDE8F081E668761C56
:10409000E66013D1606B006838B1502080F311885E
:1040A000BFF34F8FBFF36F8FFEE7606BA16B616350
:1040B000A063206A401C2062FFF7B8FEA06ADFF808
:1040C0007880864209D3606B0068A0B1606BC068DD
:1040D000C5686868864211D2A0622068C06A00EB99
:1040E000800158F82100012800D90127E069002843
:1040F000C9D00127C7E74FF0FF30EDE7281DFFF7D4
:1041000043FFA86A18B105F11800FFF73DFFE86A00
:104110002169884200D9206100EB800108EB810011
:10412000291DFFF744FFE86A2168C96A8842CAD39B
:104130000127C8E7140000200802002090EA010FC0
:1041400048BF81F0004100F10483421A3CBF801A4D
:1041500089184FEAD0524FF07F4C1CEA410FA2EB76
:10416000D15318BF9CEA026F00F03B804FF0004C27
:104170004CEA00204CEA012121FA03FC10EB0C0C64
:104180001ED202F1FF325FEA1C2040EBC25038BF62
:1041900070471CF07F0F4FEA400C18BFBCF17F4FF7
:1041A00038BF7047C3F12003994008BF20F00100D9
:1041B000BCF17F4F38BF7047A0F1C04000F081BA1A
:1041C0004FEA3C00000A40EBC25028BF1CF0FF0F32
:1041D0004FEA400CE6D018BFBCF17F4F38BF7047A4
:1041E000EAE79CEA026F05D010EA5C0F08BF00F016
:1041F0000040704710B500F01EFA00BF64FBBE3EE1
:10420000014800F014BB00BF0000C07F401058BF41
:10421000C0F14040491058BFC1F140418142EFF325
:10422000008070474FF47F0C1CEAD0121EBF1CEABE
:10423000D11392EA0C0F93EA0C0F00F0858090EAFC
:10424000010F48BF42F4807240F4000C41F40000BA
:104250002CF07F4120F07F4000B58142A2EB0302A9
:104260000FF2081CACEB504EC0F100009EF800E0CD
:104270004FEA4E0E00FB0EFC38BF49004FEA2C1CE3
:1042800002F5FA020CFB0EF34FEACE1E4FEA112C98
:104290004FEAC1210EEB635E42EB22420EFB0CFCA7
:1042A0004FEA1C5300FB03114FEA112C4FEA013176
:1042B0000EFB0CFC4FEADC4C00FB0C11C14228BF8A
:1042C00009184CEB03335DF804EB10EB410143EBB1
:1042D000C250B2F57C0F38BF704729D512F0F00FED
:1042E0001CBF00F1C04000F0004070470081828395
:1042F0008485868788898B8C8D8E8F9192939596F5
:1043000097999A9C9D9FA0A2A3A5A7A8AAACAEB07E
:10431000B2B3B5B7B9BCBEC0C2C5C7C9CCCED1D483
:10432000D7D9DCDFE2E6E9ECF0F3F7FAFE000000B3
:104330004FEA400C0CF1807CBCF17E4F28BF7047E7
:10434000B0F1C04000F0BDB990EA010F0CEAD11302
:1043500048BF42F48072624538BF634507D213F408
:104360007F0F16D080EA010000F00040704710B5C2
:1043700000F061F9097EFC3E00F005B880EA01001A
:1043800000F00040704780EA010000F0004000F0BB
:1043900098B912F47F0F04BF0248704780EA010009
:1043A00000F08FB90000C07F41000B0ED3F19E02D8
:1043B00008D950F400034FEA032323FA02F048BF60
:1043C0004042704710B500F036F900BF4992248092
:1043D000002070476FF0004282EA20007047000022
:1043E00041000B0ED3F19E0216D950F400034FEAA0
:1043F000032333FA02FC0AD363FA02F383EA0C03C1
:1044000093F0004F0CF1010C08BF2CF0010C5CEA9A
:10441000100028BF4042704710B500F00CF900BFF3
:1044200049922480002070476FF0004282EA200009
:1044300070470000C10DD1F19E0206DB4FEA002358
:1044400043F0004323FA02F07047004207D54FEAD9
:104450004001B1F1FE4F02D24FF00000704710B59D
:1044600000F0E9F849922480002070476FEA2000AC
:104470007047000010F0004148BF4042B0FA80F39E
:1044800010FA03F2C3F19D030BD051EAC35101EBC3
:104490001220530638BF704700F1010008BF20F01A
:1044A00001007047B0FA80F310FA03F2C3F19D03E4
:1044B0000AD0D90501EB1220530638BF704700F12E
:1044C000010008BF20F001007047000050EA010C15
:1044D00000F113801CF5000F58BFBCF5000F01D48C
:1044E0008842704707D710F5000F58BF11F5000F2D
:1044F00015D488427047894270471CF5000F04D5D7
:10450000BCF5000FF7D5814270474FF0807C1CEB63
:10451000400F38BF1CEB410F01D28142704710B5EC
:1045200000F089F8922449004FF000504FF080517C
:10453000FFF76CBE4FF47F0C1CEAD0121EBF1CEAC2
:10454000D11392EA0C0F93EA0C0F00F0478090EA27
:10455000010F48BF42F480724FF0004C4CEA00203B
:104560004CEA012102EB0302A0FB0113A2F50002B9
:10457000002918BF43F001035B0028BF4FEA330353
:1045800042EB22425FEA132C4CEBC2502EBFBCEB35
:10459000436FB2F57C0F70474FEA036CBCF1004FDC
:1045A00008BF20F00100B2F57C0F38BF70470BD573
:1045B00082F0FF0212F5803FC8BF704700F1C04093
:1045C000D8BF00F00040704700F5000C5FEA4C0CCB
:1045D00048BF7047B0F1C04000F073B890EA010FD7
:1045E0000CEAD11348BF42F48072624538BF63457C
:1045F00004D280EA010000F00040704710B500F0DE
:104600001AF800BF8900013E00F007B800F009B8B1
:104610005FEA410C5FEA1C6C08D080EA010000F000
:1046200050B85FEA400C5FEA1C6CF6D14FF00040D6
:10463000A0F5800070470EF1020E2EF0030E5EF81A
:10464000044B244204D44FEA4102B2F17F4F11D807
:104650004FEA4003B3F17F4F0CD80ED14FEAD07C24
:10466000B2F17F4F0CEB4C0C0CF1020C08BF4CEB81
:10467000D17C04E04FF0080C01E04FEAD17C0CEB58
:104680004C0324FA03F404F00704B4F1040C06D23A
:104690000EEB840CBDE810404CF0010C6047DFE8E5
:1046A0000CF0070802024FF00040A0F5800010BD9A
:1046B0000846420018BFD2F1807288BF00F0004067
:1046C00010BDFF2141EAD050C005704751EA000CEF
:1046D00000F113801CF5000F58BFBCF5000F01D48A
:1046E0008142704707D711F5000F58BF10F5000F32
:1046F00015D481427047894270471CF5000F04D5DC
:10470000BCF5000FF7D5884270474FF0807C1CEB5A
:10471000410F38BF1CEB400F01D28842704780EA3E
:10472000010081EA000180EA0100FFF7F8BE80F095
:10473000004090EA010F7FF508AD81F0004100F0E4
:1047400008B8000090EA010F48BF81F000413FF532
:10475000FCAC421A04D882F00042A0EB02001144E3
:104760004FEAD0524FF07F4C1CEA410FA2EBD153DD
:1047700018BF9CEA026F4AD04FF0004C4CEA002070
:104780004CEA012121FA03FCB0EB0C0C0FD412F01F
:10479000FE0F36D05FEA4C001DD5001240EBC25030
:1047A00038BF70471CF03F0F18BF70470BE0A2F1F5
:1047B00001025FEA1C2040EBC25038BF70471CF07A
:1047C0007F0F18BF7047C3F12003994014BF401EEC
:1047D00020F00100704780084FEA122308BF70479D
:1047E000B0FA80FCA2EB0C02CCF1280C60FA0CF0C1
:1047F00093EA122F04BF00EBC25070474FEAC37018
:104800007047130A5FEADC1008BF7047F6E79CEABE
:10481000026F04D010EA5C0F08BF0020704710B58B
:10482000FFF709FF40DFF63E81F0004070470CF0D3
:104830000F03092B08BF082000F051800A2B0BD072
:10484000082B18BF704708BF1CF0400F0AD04FF06C
:1048500000004FF0000170471CF0400F18BF4FF0F0
:10486000004070471CF0100F08D020F0704300F09B
:104870007F4242EAD3014FEA4370704700F0604044
:1048800021F07F4242EA000201F07F4040EA72706C
:1048900070474FF0FF0212EAD0521CBF92F0FF03A4
:1048A0008B42C2BFD14200EBC1507047002A0AD0F0
:1048B000002B0BD0002900F00040A4BF40F0FE40C8
:1048C00040F40000704700F00040704743024FF092
:1048D0000B0C18BF4CF0806C7FF492AC70471CF44A
:1048E000801F11D01CF4E02F03D06FEACC314900B7
:1048F00070474FF04050EFF3008222F0704242EADE
:10490000000282F3008870474FF0000070470102F8
:1049100002030405060708090A0B0C0D0E0F101000
:10492000000000000000000001020304060708095F
:1049300000000000010203043F065B4F666D7D0727
:104940007F6F000000100140800000000010014057
:1049500000040000001001400001000000100140B0
:104960000002000000100140004000000010014063
:1049700000800000001001404000000000100140D5
:10498000200000000010014000080000001001405D
:104990000010000000100140002000000101020290
:1049A00000000000000000000010014001000000B5
:1049B000001001400200000000100140040000004F
:1049C000001001400800000000100140100000002D
:1049D0000008014000100000000C014080000000B1
:1049E000000C0140000100000008014000800000B0
:1049F000000C014002000000000C0140010000001A
:104A0000000C014004000000000C01400800000000
:104A1000000C014010000000000C014020000000CC
:104A2000000C0140400000000000000000000000F9
:104A30000000B33FB2BE7D3A00002E40DFCF5138B8
:104A400000007E40BF51FABA00E0A44019DAC3BAB0
:104A500000E0C840C2ED8AB90040EB40CD1F2CBA3F
:104A6000001006412AFFFABA00C01541DFCFD13746
:104A700000D024419A97703A0050334189478E36CE
:104A800000404141E75B9D3800B04E41C00A98B9F3
:104A900000A05B41558F943A00306841DA92C0BA69
:104AA0000040744162B3C63A0000803F00A0853FD9
:104AB00000908B3F00C0913F0030983F00F09E3F38
:104AC00000F0A53F0050AD3F0000B53F0000BD3FE6
:104AD0000060C53F0020CE3F0040D73F00C0E03F10
:104AE00000C0EA3F0020F53F000000007D36AC39F1
:104AF0007D3C3839EBDCF438320A7E39124C2639E9
:104B00009B6AED39A4EE83397F661E39F6398A39FE
:104B10002B426539A48211395B991F39C3EECD3917
:104B2000DDE7C637A5A22F390000803FC3AA853F25
:104B3000C2958B3FD3C3913FF037983F32F59E3FEC
:104B4000D7FEA53F3F58AD3FF304B53FA408BD3F96
:104B50002A67C53F8C24CE3FFD44D73FDFCCE03FE2
:104B6000C7C0EA3F7D25F53F884B000800000020C4
:104B7000940000006C0100081C4C00089400002008
:104B8000041000008801000800000000010000007F
:104B9000100000000000000000127A000000000079
:104BA0000000000000000000000000000000000005
:104BB00000000000000000000000000000000000F5
:104BC00000000000000000000000000000000000E5
:104BD00000000000000000000000000000000000D5
:104BE00000000000000000000000000000000000C5
:104BF00000000201000000000000000000000000B2
:104C0000000000000000FFFF0000000000000000A6
:0C4C100000000000000000000000000098
:0400000508000131BD
:00000001FF
